{
  "_format": "hh-sol-artifact-1",
  "contractName": "DARTsERC1155",
  "sourceName": "contracts/DARTsERC1155.sol",
  "abi": [
    {
      "inputs": [],
      "stateMutability": "nonpayable",
      "type": "constructor"
    },
    {
      "anonymous": false,
      "inputs": [
        {
          "indexed": true,
          "internalType": "address",
          "name": "account",
          "type": "address"
        },
        {
          "indexed": true,
          "internalType": "address",
          "name": "operator",
          "type": "address"
        },
        {
          "indexed": false,
          "internalType": "bool",
          "name": "approved",
          "type": "bool"
        }
      ],
      "name": "ApprovalForAll",
      "type": "event"
    },
    {
      "anonymous": false,
      "inputs": [
        {
          "indexed": true,
          "internalType": "bytes32",
          "name": "role",
          "type": "bytes32"
        },
        {
          "indexed": true,
          "internalType": "bytes32",
          "name": "previousAdminRole",
          "type": "bytes32"
        },
        {
          "indexed": true,
          "internalType": "bytes32",
          "name": "newAdminRole",
          "type": "bytes32"
        }
      ],
      "name": "RoleAdminChanged",
      "type": "event"
    },
    {
      "anonymous": false,
      "inputs": [
        {
          "indexed": true,
          "internalType": "bytes32",
          "name": "role",
          "type": "bytes32"
        },
        {
          "indexed": true,
          "internalType": "address",
          "name": "account",
          "type": "address"
        },
        {
          "indexed": true,
          "internalType": "address",
          "name": "sender",
          "type": "address"
        }
      ],
      "name": "RoleGranted",
      "type": "event"
    },
    {
      "anonymous": false,
      "inputs": [
        {
          "indexed": true,
          "internalType": "bytes32",
          "name": "role",
          "type": "bytes32"
        },
        {
          "indexed": true,
          "internalType": "address",
          "name": "account",
          "type": "address"
        },
        {
          "indexed": true,
          "internalType": "address",
          "name": "sender",
          "type": "address"
        }
      ],
      "name": "RoleRevoked",
      "type": "event"
    },
    {
      "anonymous": false,
      "inputs": [
        {
          "indexed": true,
          "internalType": "address",
          "name": "operator",
          "type": "address"
        },
        {
          "indexed": true,
          "internalType": "address",
          "name": "from",
          "type": "address"
        },
        {
          "indexed": true,
          "internalType": "address",
          "name": "to",
          "type": "address"
        },
        {
          "indexed": false,
          "internalType": "uint256[]",
          "name": "ids",
          "type": "uint256[]"
        },
        {
          "indexed": false,
          "internalType": "uint256[]",
          "name": "values",
          "type": "uint256[]"
        }
      ],
      "name": "TransferBatch",
      "type": "event"
    },
    {
      "anonymous": false,
      "inputs": [
        {
          "indexed": true,
          "internalType": "address",
          "name": "operator",
          "type": "address"
        },
        {
          "indexed": true,
          "internalType": "address",
          "name": "from",
          "type": "address"
        },
        {
          "indexed": true,
          "internalType": "address",
          "name": "to",
          "type": "address"
        },
        {
          "indexed": false,
          "internalType": "uint256",
          "name": "id",
          "type": "uint256"
        },
        {
          "indexed": false,
          "internalType": "uint256",
          "name": "value",
          "type": "uint256"
        }
      ],
      "name": "TransferSingle",
      "type": "event"
    },
    {
      "anonymous": false,
      "inputs": [
        {
          "indexed": false,
          "internalType": "string",
          "name": "value",
          "type": "string"
        },
        {
          "indexed": true,
          "internalType": "uint256",
          "name": "id",
          "type": "uint256"
        }
      ],
      "name": "URI",
      "type": "event"
    },
    {
      "anonymous": false,
      "inputs": [
        {
          "indexed": false,
          "internalType": "uint256",
          "name": "_tokenId",
          "type": "uint256"
        },
        {
          "indexed": true,
          "internalType": "address",
          "name": "_from",
          "type": "address"
        }
      ],
      "name": "updatedRoyalty",
      "type": "event"
    },
    {
      "inputs": [],
      "name": "ADD_MEMBER_ROLE",
      "outputs": [
        {
          "internalType": "bytes32",
          "name": "",
          "type": "bytes32"
        }
      ],
      "stateMutability": "view",
      "type": "function"
    },
    {
      "inputs": [],
      "name": "DEFAULT_ADMIN_ROLE",
      "outputs": [
        {
          "internalType": "bytes32",
          "name": "",
          "type": "bytes32"
        }
      ],
      "stateMutability": "view",
      "type": "function"
    },
    {
      "inputs": [],
      "name": "MINTER_ROLE",
      "outputs": [
        {
          "internalType": "bytes32",
          "name": "",
          "type": "bytes32"
        }
      ],
      "stateMutability": "view",
      "type": "function"
    },
    {
      "inputs": [
        {
          "internalType": "uint256",
          "name": "",
          "type": "uint256"
        }
      ],
      "name": "Rights",
      "outputs": [
        {
          "internalType": "uint256",
          "name": "id",
          "type": "uint256"
        },
        {
          "internalType": "uint256",
          "name": "formerId",
          "type": "uint256"
        },
        {
          "internalType": "string",
          "name": "uri",
          "type": "string"
        },
        {
          "internalType": "bool",
          "name": "cloneable",
          "type": "bool"
        },
        {
          "internalType": "uint256",
          "name": "order",
          "type": "uint256"
        },
        {
          "components": [
            {
              "internalType": "address[]",
              "name": "owners",
              "type": "address[]"
            },
            {
              "internalType": "uint32[]",
              "name": "ownerspercent",
              "type": "uint32[]"
            },
            {
              "internalType": "address[]",
              "name": "creators",
              "type": "address[]"
            },
            {
              "internalType": "uint32[]",
              "name": "creatorpercent",
              "type": "uint32[]"
            },
            {
              "internalType": "address[]",
              "name": "sponsors",
              "type": "address[]"
            },
            {
              "internalType": "uint32[]",
              "name": "sponsorpercent",
              "type": "uint32[]"
            },
            {
              "internalType": "address[]",
              "name": "thanks",
              "type": "address[]"
            },
            {
              "internalType": "uint32[]",
              "name": "thankpercent",
              "type": "uint32[]"
            }
          ],
          "internalType": "struct DataTypes.royaltyReceiver",
          "name": "receiver",
          "type": "tuple"
        },
        {
          "components": [
            {
              "internalType": "uint32",
              "name": "Royalty",
              "type": "uint32"
            },
            {
              "internalType": "uint32",
              "name": "holdershare",
              "type": "uint32"
            },
            {
              "internalType": "uint32",
              "name": "creatorshare",
              "type": "uint32"
            },
            {
              "internalType": "uint32",
              "name": "sponsorshare",
              "type": "uint32"
            },
            {
              "internalType": "uint32",
              "name": "thanksshare",
              "type": "uint32"
            }
          ],
          "internalType": "struct DataTypes.royaltyTable",
          "name": "royalty_table",
          "type": "tuple"
        },
        {
          "components": [
            {
              "internalType": "address",
              "name": "proposer",
              "type": "address"
            },
            {
              "internalType": "address",
              "name": "admitter",
              "type": "address"
            },
            {
              "internalType": "uint32",
              "name": "newRoyalty",
              "type": "uint32"
            },
            {
              "internalType": "bool",
              "name": "admitted",
              "type": "bool"
            }
          ],
          "internalType": "struct DataTypes.RoyaltyVoting",
          "name": "royalty_voting",
          "type": "tuple"
        },
        {
          "internalType": "bytes",
          "name": "metadata",
          "type": "bytes"
        }
      ],
      "stateMutability": "view",
      "type": "function"
    },
    {
      "inputs": [],
      "name": "URI_SETTER_ROLE",
      "outputs": [
        {
          "internalType": "bytes32",
          "name": "",
          "type": "bytes32"
        }
      ],
      "stateMutability": "view",
      "type": "function"
    },
    {
      "inputs": [
        {
          "internalType": "address",
          "name": "account",
          "type": "address"
        },
        {
          "internalType": "uint256",
          "name": "id",
          "type": "uint256"
        }
      ],
      "name": "balanceOf",
      "outputs": [
        {
          "internalType": "uint256",
          "name": "",
          "type": "uint256"
        }
      ],
      "stateMutability": "view",
      "type": "function"
    },
    {
      "inputs": [
        {
          "internalType": "address[]",
          "name": "accounts",
          "type": "address[]"
        },
        {
          "internalType": "uint256[]",
          "name": "ids",
          "type": "uint256[]"
        }
      ],
      "name": "balanceOfBatch",
      "outputs": [
        {
          "internalType": "uint256[]",
          "name": "",
          "type": "uint256[]"
        }
      ],
      "stateMutability": "view",
      "type": "function"
    },
    {
      "inputs": [
        {
          "internalType": "uint256",
          "name": "formerId",
          "type": "uint256"
        },
        {
          "internalType": "uint256",
          "name": "_initSupply",
          "type": "uint256"
        },
        {
          "internalType": "uint256",
          "name": "_editType",
          "type": "uint256"
        }
      ],
      "name": "clone",
      "outputs": [],
      "stateMutability": "nonpayable",
      "type": "function"
    },
    {
      "inputs": [
        {
          "internalType": "address[]",
          "name": "owners",
          "type": "address[]"
        },
        {
          "internalType": "address[]",
          "name": "creators",
          "type": "address[]"
        },
        {
          "internalType": "address[]",
          "name": "sponsors",
          "type": "address[]"
        },
        {
          "internalType": "address[]",
          "name": "thanks",
          "type": "address[]"
        },
        {
          "internalType": "string",
          "name": "_tokenUri",
          "type": "string"
        }
      ],
      "name": "create",
      "outputs": [
        {
          "internalType": "bool",
          "name": "",
          "type": "bool"
        }
      ],
      "stateMutability": "nonpayable",
      "type": "function"
    },
    {
      "inputs": [
        {
          "internalType": "uint256",
          "name": "id",
          "type": "uint256"
        }
      ],
      "name": "exists",
      "outputs": [
        {
          "internalType": "bool",
          "name": "",
          "type": "bool"
        }
      ],
      "stateMutability": "view",
      "type": "function"
    },
    {
      "inputs": [
        {
          "internalType": "bytes32",
          "name": "role",
          "type": "bytes32"
        }
      ],
      "name": "getRoleAdmin",
      "outputs": [
        {
          "internalType": "bytes32",
          "name": "",
          "type": "bytes32"
        }
      ],
      "stateMutability": "view",
      "type": "function"
    },
    {
      "inputs": [
        {
          "internalType": "bytes32",
          "name": "role",
          "type": "bytes32"
        },
        {
          "internalType": "address",
          "name": "account",
          "type": "address"
        }
      ],
      "name": "grantRole",
      "outputs": [],
      "stateMutability": "nonpayable",
      "type": "function"
    },
    {
      "inputs": [
        {
          "internalType": "bytes32",
          "name": "role",
          "type": "bytes32"
        },
        {
          "internalType": "address",
          "name": "account",
          "type": "address"
        }
      ],
      "name": "hasRole",
      "outputs": [
        {
          "internalType": "bool",
          "name": "",
          "type": "bool"
        }
      ],
      "stateMutability": "view",
      "type": "function"
    },
    {
      "inputs": [
        {
          "internalType": "address",
          "name": "account",
          "type": "address"
        },
        {
          "internalType": "address",
          "name": "operator",
          "type": "address"
        }
      ],
      "name": "isApprovedForAll",
      "outputs": [
        {
          "internalType": "bool",
          "name": "",
          "type": "bool"
        }
      ],
      "stateMutability": "view",
      "type": "function"
    },
    {
      "inputs": [
        {
          "internalType": "bytes32",
          "name": "role",
          "type": "bytes32"
        },
        {
          "internalType": "address",
          "name": "account",
          "type": "address"
        }
      ],
      "name": "renounceRole",
      "outputs": [],
      "stateMutability": "nonpayable",
      "type": "function"
    },
    {
      "inputs": [
        {
          "internalType": "bytes32",
          "name": "role",
          "type": "bytes32"
        },
        {
          "internalType": "address",
          "name": "account",
          "type": "address"
        }
      ],
      "name": "revokeRole",
      "outputs": [],
      "stateMutability": "nonpayable",
      "type": "function"
    },
    {
      "inputs": [
        {
          "internalType": "uint256",
          "name": "_tokenId",
          "type": "uint256"
        },
        {
          "internalType": "uint256",
          "name": "_salePrice",
          "type": "uint256"
        }
      ],
      "name": "royaltyInfo",
      "outputs": [
        {
          "components": [
            {
              "internalType": "address[]",
              "name": "receiver",
              "type": "address[]"
            },
            {
              "internalType": "uint256[]",
              "name": "royaltyAmount",
              "type": "uint256[]"
            },
            {
              "internalType": "enum DataTypes.status[]",
              "name": "shareflag",
              "type": "uint8[]"
            },
            {
              "internalType": "uint256",
              "name": "formerID",
              "type": "uint256"
            },
            {
              "internalType": "uint256",
              "name": "Price",
              "type": "uint256"
            }
          ],
          "internalType": "struct DataTypes.RoyaltyInfo",
          "name": "",
          "type": "tuple"
        }
      ],
      "stateMutability": "view",
      "type": "function"
    },
    {
      "inputs": [
        {
          "internalType": "address",
          "name": "from",
          "type": "address"
        },
        {
          "internalType": "address",
          "name": "to",
          "type": "address"
        },
        {
          "internalType": "uint256[]",
          "name": "ids",
          "type": "uint256[]"
        },
        {
          "internalType": "uint256[]",
          "name": "amounts",
          "type": "uint256[]"
        },
        {
          "internalType": "bytes",
          "name": "data",
          "type": "bytes"
        }
      ],
      "name": "safeBatchTransferFrom",
      "outputs": [],
      "stateMutability": "nonpayable",
      "type": "function"
    },
    {
      "inputs": [
        {
          "internalType": "address",
          "name": "from",
          "type": "address"
        },
        {
          "internalType": "address",
          "name": "to",
          "type": "address"
        },
        {
          "internalType": "uint256",
          "name": "id",
          "type": "uint256"
        },
        {
          "internalType": "uint256",
          "name": "amount",
          "type": "uint256"
        },
        {
          "internalType": "bytes",
          "name": "data",
          "type": "bytes"
        }
      ],
      "name": "safeTransferFrom",
      "outputs": [],
      "stateMutability": "nonpayable",
      "type": "function"
    },
    {
      "inputs": [
        {
          "internalType": "address",
          "name": "operator",
          "type": "address"
        },
        {
          "internalType": "bool",
          "name": "approved",
          "type": "bool"
        }
      ],
      "name": "setApprovalForAll",
      "outputs": [],
      "stateMutability": "nonpayable",
      "type": "function"
    },
    {
      "inputs": [
        {
          "internalType": "uint256",
          "name": "_tokenId",
          "type": "uint256"
        },
        {
          "internalType": "address",
          "name": "_newAdmin",
          "type": "address"
        },
        {
          "internalType": "uint8",
          "name": "_adminType",
          "type": "uint8"
        }
      ],
      "name": "setGroupAdmin",
      "outputs": [],
      "stateMutability": "nonpayable",
      "type": "function"
    },
    {
      "inputs": [
        {
          "internalType": "uint256",
          "name": "_tokenId",
          "type": "uint256"
        },
        {
          "internalType": "uint32[4]",
          "name": "_tabledata",
          "type": "uint32[4]"
        }
      ],
      "name": "setRoyaltyTable",
      "outputs": [
        {
          "components": [
            {
              "internalType": "uint32",
              "name": "Royalty",
              "type": "uint32"
            },
            {
              "internalType": "uint32",
              "name": "holdershare",
              "type": "uint32"
            },
            {
              "internalType": "uint32",
              "name": "creatorshare",
              "type": "uint32"
            },
            {
              "internalType": "uint32",
              "name": "sponsorshare",
              "type": "uint32"
            },
            {
              "internalType": "uint32",
              "name": "thanksshare",
              "type": "uint32"
            }
          ],
          "internalType": "struct DataTypes.royaltyTable",
          "name": "",
          "type": "tuple"
        }
      ],
      "stateMutability": "nonpayable",
      "type": "function"
    },
    {
      "inputs": [
        {
          "internalType": "uint256",
          "name": "_tokenId",
          "type": "uint256"
        },
        {
          "internalType": "address[]",
          "name": "recipient",
          "type": "address[]"
        },
        {
          "internalType": "uint32[]",
          "name": "value",
          "type": "uint32[]"
        },
        {
          "internalType": "bool",
          "name": "is_del_add",
          "type": "bool"
        }
      ],
      "name": "setTokenRoyalty",
      "outputs": [],
      "stateMutability": "nonpayable",
      "type": "function"
    },
    {
      "inputs": [
        {
          "internalType": "uint256",
          "name": "_tokenId",
          "type": "uint256"
        },
        {
          "internalType": "string",
          "name": "_newURI",
          "type": "string"
        }
      ],
      "name": "setTokenURI",
      "outputs": [],
      "stateMutability": "nonpayable",
      "type": "function"
    },
    {
      "inputs": [
        {
          "internalType": "bytes4",
          "name": "interfaceId",
          "type": "bytes4"
        }
      ],
      "name": "supportsInterface",
      "outputs": [
        {
          "internalType": "bool",
          "name": "",
          "type": "bool"
        }
      ],
      "stateMutability": "view",
      "type": "function"
    },
    {
      "inputs": [
        {
          "internalType": "uint256",
          "name": "tokenId",
          "type": "uint256"
        }
      ],
      "name": "tokenURI",
      "outputs": [
        {
          "internalType": "string",
          "name": "",
          "type": "string"
        }
      ],
      "stateMutability": "view",
      "type": "function"
    },
    {
      "inputs": [
        {
          "internalType": "uint256",
          "name": "_tokenId",
          "type": "uint256"
        },
        {
          "internalType": "uint256",
          "name": "_salePrice",
          "type": "uint256"
        }
      ],
      "name": "totalRoyaltyInfo",
      "outputs": [
        {
          "internalType": "address[]",
          "name": "_recepient",
          "type": "address[]"
        },
        {
          "internalType": "uint256[]",
          "name": "_royaltyAmount",
          "type": "uint256[]"
        },
        {
          "internalType": "enum DataTypes.status[]",
          "name": "_shareflag",
          "type": "uint8[]"
        }
      ],
      "stateMutability": "view",
      "type": "function"
    },
    {
      "inputs": [
        {
          "internalType": "uint256",
          "name": "id",
          "type": "uint256"
        }
      ],
      "name": "totalSupply",
      "outputs": [
        {
          "internalType": "uint256",
          "name": "",
          "type": "uint256"
        }
      ],
      "stateMutability": "view",
      "type": "function"
    },
    {
      "inputs": [
        {
          "internalType": "uint256",
          "name": "",
          "type": "uint256"
        }
      ],
      "name": "uri",
      "outputs": [
        {
          "internalType": "string",
          "name": "",
          "type": "string"
        }
      ],
      "stateMutability": "view",
      "type": "function"
    }
  ],
  "bytecode": "0x60806040523480156200001157600080fd5b506040805160208101909152600081526200002c81620004f6565b506200003a6000336200050f565b620000667f7804d923f43a17d325d77e781528e0793b2edd9890ab45fc64efd7b4b427744c336200050f565b620000927f9f2df0fed2c77648de5860a4cc508cd0818c85b8b8a1ab4ceeef8d981c8956a6336200050f565b620000be7f1f1b4aa0d73319659c20c2c3f4cddca7aa547f1a7fdeb8c35f49f3f0a6a62d4c336200050f565b606060405180610120016040528060008152602001600081526020016040518060200160405280600081525081526020016000151581526020016000815260200160405180610100016040528060006001600160401b038111156200013357634e487b7160e01b600052604160045260246000fd5b6040519080825280602002602001820160405280156200015d578160200160208202803683370190505b508152602080820186905260408051600080825281840183528285019190915260608085018990528251828152808501845260808087019190915260a08087018b90528451848152808701865260c088015260e09096018a9052958752825194850183528185526064858501528483018290528481018290528486018290528684019490945281519485018252808552848301819052848201819052848401819052858201949094528051808301825284815294909201939093529080526005825282517f05b8ccbb9d4d8fb16ea74ce3c29a41f1b461fbdaff4714a0d9a8eb05499746bc908155838301517f05b8ccbb9d4d8fb16ea74ce3c29a41f1b461fbdaff4714a0d9a8eb05499746bd559083015180519192620002a4927f05b8ccbb9d4d8fb16ea74ce3c29a41f1b461fbdaff4714a0d9a8eb05499746be9290910190620005b3565b50606082015160038201805460ff19169115159190911790556080820151600482015560a0820151805180516005840191620002e69183916020019062000642565b5060208281015180516200030192600185019201906200069a565b50604082015180516200031f91600284019160209091019062000642565b50606082015180516200033d9160038401916020909101906200069a565b50608082015180516200035b91600484019160209091019062000642565b5060a08201518051620003799160058401916020909101906200069a565b5060c082015180516200039791600684019160209091019062000642565b5060e08201518051620003b59160078401916020909101906200069a565b50505060c08201518051600d8301805460208085015160408087015160608089015160809099015163ffffffff908116600160801b0263ffffffff60801b199a82166c010000000000000000000000000263ffffffff60601b19948316680100000000000000000294909416600160401b600160801b0319968316640100000000026001600160401b03199099169a83169a909a1797909717949094169790971717969096169290921790925560e08601518051600e870180546001600160a01b039283166001600160a01b031990911617905581840151600f880180549784015193909601511515600160c01b0260ff60c01b1993909416600160a01b026001600160c01b031990971691161794909417939093169290921790556101008301518051620004eb9260108501920190620005b3565b50905050506200079a565b80516200050b906002906020840190620005b3565b5050565b60008281526004602090815260408083206001600160a01b038516845290915290205460ff166200050b5760008281526004602090815260408083206001600160a01b03851684529091529020805460ff191660011790556200056f3390565b6001600160a01b0316816001600160a01b0316837f2f8788117e7eff1d82e926ec794901d17c78024a50270940304540a733656f0d60405160405180910390a45050565b828054620005c1906200075d565b90600052602060002090601f016020900481019282620005e5576000855562000630565b82601f106200060057805160ff191683800117855562000630565b8280016001018555821562000630579182015b828111156200063057825182559160200191906001019062000613565b506200063e92915062000746565b5090565b82805482825590600052602060002090810192821562000630579160200282015b828111156200063057825182546001600160a01b0319166001600160a01b0390911617825560209092019160019091019062000663565b82805482825590600052602060002090600701600890048101928215620006305791602002820160005b838211156200070a57835183826101000a81548163ffffffff021916908363ffffffff1602179055509260200192600401602081600301049283019260010302620006c4565b80156200073c5782816101000a81549063ffffffff02191690556004016020816003010492830192600103026200070a565b50506200063e9291505b5b808211156200063e576000815560010162000747565b600181811c908216806200077257607f821691505b602082108114156200079457634e487b7160e01b600052602260045260246000fd5b50919050565b615e8980620007aa6000396000f3fe608060405234801561001057600080fd5b50600436106101ce5760003560e01c80634f558e7911610104578063bd85b039116100a2578063e985e9c511610071578063e985e9c514610457578063f242432a14610493578063f28da657146104a6578063f7d68541146104b957600080fd5b8063bd85b039146103fc578063c87b56dd1461041c578063d53913931461042f578063d547741f1461044457600080fd5b806391d14854116100de57806391d14854146103bb578063a217fddf146103ce578063a22cb465146103d6578063b3b3d5f7146103e957600080fd5b80634f558e791461035057806350996f48146103725780637f3457101461039457600080fd5b80632a55205a1161017157806336568abe1161014b57806336568abe146102e25780633b7d8b50146102f55780633d6b1c45146103085780634e1273f41461033057600080fd5b80632a55205a1461029c5780632eb2c2d6146102bc5780632f2ff15d146102cf57600080fd5b8063162094c4116101ad578063162094c41461023c57806317a5e59014610251578063248a9ca314610264578063272a0e7a1461028757600080fd5b8062fdd58e146101d357806301ffc9a7146101f95780630e89341c1461021c575b600080fd5b6101e66101e1366004615120565b6104d9565b6040519081526020015b60405180910390f35b61020c61020736600461527f565b610573565b60405190151581526020016101f0565b61022f61022a366004615245565b61057e565b6040516101f091906157b4565b61024f61024a366004615473565b610612565b005b61024f61025f3660046152b7565b6106b5565b6101e6610272366004615245565b60009081526004602052604090206001015490565b6101e6600080516020615e1483398151915281565b6102af6102aa3660046154ad565b610a81565b6040516101f0919061589e565b61024f6102ca366004614ff0565b610aa8565b61024f6102dd36600461525d565b610b3f565b61024f6102f036600461525d565b610b65565b61024f6103033660046152fb565b610be3565b61031b610316366004615245565b610c3b565b6040516101f099989796959493929190615960565b61034361033e3660046151e5565b6111d7565b6040516101f09190615773565b61020c61035e366004615245565b600090815260036020526040902054151590565b6103856103803660046154ad565b611338565b6040516101f093929190615730565b6101e67f7804d923f43a17d325d77e781528e0793b2edd9890ab45fc64efd7b4b427744c81565b61020c6103c936600461525d565b611408565b6101e6600081565b61024f6103e43660046150f7565b611433565b61020c6103f7366004615149565b61143e565b6101e661040a366004615245565b60009081526003602052604090205490565b61022f61042a366004615245565b61191d565b6101e6600080516020615e3483398151915281565b61024f61045236600461525d565b611a35565b61020c610465366004614fbe565b6001600160a01b03918216600090815260016020908152604080832093909416825291909152205460ff1690565b61024f6104a1366004615095565b611a5b565b61024f6104b43660046154ce565b611b6a565b6104cc6104c73660046153e0565b612159565b6040516101f09190615917565b60006001600160a01b03831661054a5760405162461bcd60e51b815260206004820152602b60248201527f455243313135353a2062616c616e636520717565727920666f7220746865207a60448201526a65726f206164647265737360a81b60648201526084015b60405180910390fd5b506000818152602081815260408083206001600160a01b03861684529091529020545b92915050565b600061056d8261233c565b60606002805461058d90615c71565b80601f01602080910402602001604051908101604052809291908181526020018280546105b990615c71565b80156106065780601f106105db57610100808354040283529160200191610606565b820191906000526020600020905b8154815290600101906020018083116105e957829003601f168201915b50505050509050919050565b60008281526003602052604090205482901515604051806040016040528060018152602001600d60fa1b8152509061065d5760405162461bcd60e51b815260040161054191906157b4565b50600161066b335b856104d9565b1015604051806040016040528060018152602001601960f91b815250906106a55760405162461bcd60e51b815260040161054191906157b4565b506106b08383612361565b505050565b600080516020615e348339815191526106ce8133612380565b60008481526003602052604090205484901515604051806040016040528060018152602001600d60fa1b815250906107195760405162461bcd60e51b815260040161054191906157b4565b5061072433866104d9565b600114604051806040016040528060018152602001601960f91b8152509061075f5760405162461bcd60e51b815260040161054191906157b4565b506040805180820190915260018152603760f81b6020820152600360ff85161061079c5760405162461bcd60e51b815260040161054191906157b4565b50600085815260056020526040902060ff84166108b65760078101541561081057610810600080516020615e14833981519152826005016002016000815481106107f657634e487b7160e01b600052603260045260246000fd5b6000918252602090912001546001600160a01b03166123e4565b610882858260050160020180548060200260200160405190810160405280929190818152602001828054801561086f57602002820191906000526020600020905b81546001600160a01b03168152600190910190602001808311610851575b505050505061244b90919063ffffffff16565b8051610898916007840191602090910190614c3e565b506108b1600080516020615e14833981519152866124fb565b610a79565b8360ff166001141561098b5760098101541561090557610905600080516020615e14833981519152826005016004016000815481106107f657634e487b7160e01b600052603260045260246000fd5b610975858260050160040180548060200260200160405190810160405280929190818152602001828054801561086f576020028201919060005260206000209081546001600160a01b0316815260019091019060200180831161085157505050505061244b90919063ffffffff16565b8051610898916009840191602090910190614c3e565b8360ff1660021415610a7957600b810154156109da576109da600080516020615e14833981519152826005016006016000815481106107f657634e487b7160e01b600052603260045260246000fd5b610a4a858260050160060180548060200260200160405190810160405280929190818152602001828054801561086f576020028201919060005260206000209081546001600160a01b0316815260019091019060200180831161085157505050505061244b90919063ffffffff16565b8051610a6091600b840191602090910190614c3e565b50610a79600080516020615e14833981519152866124fb565b505050505050565b610a89614ca3565b6000838152600560205260409020610aa19083612581565b9392505050565b6001600160a01b038516331480610ac45750610ac48533610465565b610b2b5760405162461bcd60e51b815260206004820152603260248201527f455243313135353a207472616e736665722063616c6c6572206973206e6f74206044820152711bdddb995c881b9bdc88185c1c1c9bdd995960721b6064820152608401610541565b610b38858585858561304e565b5050505050565b600082815260046020526040902060010154610b5b8133612380565b6106b083836124fb565b6001600160a01b0381163314610bd55760405162461bcd60e51b815260206004820152602f60248201527f416363657373436f6e74726f6c3a2063616e206f6e6c792072656e6f756e636560448201526e103937b632b9903337b91039b2b63360891b6064820152608401610541565b610bdf82826123e4565b5050565b60008481526003602052604090205484901515604051806040016040528060018152602001600d60fa1b81525090610c2e5760405162461bcd60e51b815260040161054191906157b4565b50610b388585858561324d565b60056020526000908152604090208054600182015460028301805492939192610c6390615c71565b80601f0160208091040260200160405190810160405280929190818152602001828054610c8f90615c71565b8015610cdc5780601f10610cb157610100808354040283529160200191610cdc565b820191906000526020600020905b815481529060010190602001808311610cbf57829003601f168201915b50505050600383015460048401546040805160058701805461012060208202840181019094526101008301818152979860ff909616979496509193909284928491840182828015610d5657602002820191906000526020600020905b81546001600160a01b03168152600190910190602001808311610d38575b5050505050815260200160018201805480602002602001604051908101604052809291908181526020018280548015610dda57602002820191906000526020600020906000905b82829054906101000a900463ffffffff1663ffffffff1681526020019060040190602082600301049283019260010382029150808411610d9d5790505b5050505050815260200160028201805480602002602001604051908101604052809291908181526020018280548015610e3c57602002820191906000526020600020905b81546001600160a01b03168152600190910190602001808311610e1e575b5050505050815260200160038201805480602002602001604051908101604052809291908181526020018280548015610ec057602002820191906000526020600020906000905b82829054906101000a900463ffffffff1663ffffffff1681526020019060040190602082600301049283019260010382029150808411610e835790505b5050505050815260200160048201805480602002602001604051908101604052809291908181526020018280548015610f2257602002820191906000526020600020905b81546001600160a01b03168152600190910190602001808311610f04575b5050505050815260200160058201805480602002602001604051908101604052809291908181526020018280548015610fa657602002820191906000526020600020906000905b82829054906101000a900463ffffffff1663ffffffff1681526020019060040190602082600301049283019260010382029150808411610f695790505b505050505081526020016006820180548060200260200160405190810160405280929190818152602001828054801561100857602002820191906000526020600020905b81546001600160a01b03168152600190910190602001808311610fea575b505050505081526020016007820180548060200260200160405190810160405280929190818152602001828054801561108c57602002820191906000526020600020906000905b82829054906101000a900463ffffffff1663ffffffff168152602001906004019060208260030104928301926001038202915080841161104f5790505b5050509190925250506040805160a081018252600d85015463ffffffff8082168352600160201b82048116602080850191909152600160401b8304821684860152600160601b83048216606080860191909152600160801b909304821660808086019190915285519081018652600e8901546001600160a01b039081168252600f8a015490811692820192909252600160a01b820490921694820194909452600160c01b90930460ff1615159083015260108501805494959194929350909161115490615c71565b80601f016020809104026020016040519081016040528092919081815260200182805461118090615c71565b80156111cd5780601f106111a2576101008083540402835291602001916111cd565b820191906000526020600020905b8154815290600101906020018083116111b057829003601f168201915b5050505050905089565b6060815183511461123c5760405162461bcd60e51b815260206004820152602960248201527f455243313135353a206163636f756e747320616e6420696473206c656e677468604482015268040dad2e6dac2e8c6d60bb1b6064820152608401610541565b600083516001600160401b0381111561126557634e487b7160e01b600052604160045260246000fd5b60405190808252806020026020018201604052801561128e578160200160208202803683370190505b50905060005b8451811015611330576112f58582815181106112c057634e487b7160e01b600052603260045260246000fd5b60200260200101518583815181106112e857634e487b7160e01b600052603260045260246000fd5b60200260200101516104d9565b82828151811061131557634e487b7160e01b600052603260045260246000fd5b602090810291909101015261132981615cd8565b9050611294565b509392505050565b606080808484611346614ca3565b600083815260056020526040902060040154156113ec5761137361136a8484610a81565b5182519061326d565b81526113996113828484610a81565b6020015182602001516133d990919063ffffffff16565b60208201526113c26113ab8484610a81565b60400151826040015161352b90919063ffffffff16565b60408201526113d18383610a81565b6080015191506113e18383610a81565b606001519250611346565b8051602082015160409092015190999198509650945050505050565b60009182526004602090815260408084206001600160a01b0393909316845291905290205460ff1690565b610bdf3383836136fd565b6000600080516020615e348339815191526114598133612380565b336001600160a01b03168760008151811061148457634e487b7160e01b600052603260045260246000fd5b60200260200101516001600160a01b031614604051806040016040528060018152602001603560f81b815250906114ce5760405162461bcd60e51b815260040161054191906157b4565b506114dd600780546001019055565b60006114e860075490565b905061152e8860008151811061150e57634e487b7160e01b600052603260045260246000fd5b6020026020010151826001604051806020016040528060008152506137de565b6115388185612361565b611578600080516020615e148339815191528960008151811061156b57634e487b7160e01b600052603260045260246000fd5b60200260200101516124fb565b60405180610120016040528082815260200160008152602001858152602001600115158152602001600181526020016040518061010001604052808b81526020016115c38c516138ee565b81526020018a81526020016115d88b516138ee565b81526020018981526020016115ed8a516138ee565b815260200188815260200161160289516138ee565b905281526040805160a081018252600080825261271060208381019190915282840182905260608084018390526080808501849052828701949094528451938401855282845283820183905283850183905283810183905284860193909352835180820185528281529290940191909152848152600583528190208351815583830151600182015590830151805191926116a492600285019290910190614cd2565b50606082015160038201805460ff19169115159190911790556080820151600482015560a08201518051805160058401916116e491839160200190614c3e565b5060208281015180516116fd9260018501920190614d46565b5060408201518051611719916002840191602090910190614c3e565b5060608201518051611735916003840191602090910190614d46565b5060808201518051611751916004840191602090910190614c3e565b5060a0820151805161176d916005840191602090910190614d46565b5060c08201518051611789916006840191602090910190614c3e565b5060e082015180516117a5916007840191602090910190614d46565b50505060c08201518051600d8301805460208085015160408087015160608089015160809099015163ffffffff908116600160801b0263ffffffff60801b199a8216600160601b0263ffffffff60601b19948316600160401b029490941667ffffffffffffffff60401b19968316600160201b0267ffffffffffffffff199099169a83169a909a1797909717949094169790971717969096169290921790925560e08601518051600e870180546001600160a01b039283166001600160a01b031990911617905581840151600f880180549784015193909601511515600160c01b0260ff60c01b1993909416600160a01b026001600160c01b0319909716911617949094179390931692909217905561010083015180516118cc9260108501920190614cd2565b509050506118d981613a19565b5060405181815233907f427e59d7b8c594b05943080c33e51d19494fdd0e39355d9e3f7103ac175322649060200160405180910390a2506001979650505050505050565b6000818152600360205260409020546060906119965760405162461bcd60e51b815260206004820152603260248201527f4552433131353555524953746f726167653a2055524920717565727920666f72604482015271103737b732bc34b9ba32b73a103a37b5b2b760711b6064820152608401610541565b600082815260066020526040812080546119af90615c71565b80601f01602080910402602001604051908101604052809291908181526020018280546119db90615c71565b8015611a285780601f106119fd57610100808354040283529160200191611a28565b820191906000526020600020905b815481529060010190602001808311611a0b57829003601f168201915b5093979650505050505050565b600082815260046020526040902060010154611a518133612380565b6106b083836123e4565b6001600160a01b038516331480611a775750611a778533610465565b604051806040016040528060018152602001603360f81b81525090611aaf5760405162461bcd60e51b815260040161054191906157b4565b50611abd8585858585613a38565b60008381526005602081905260408220018054869290611aed57634e487b7160e01b600052603260045260246000fd5b9060005260206000200160006101000a8154816001600160a01b0302191690836001600160a01b03160217905550611b33600080516020615e14833981519152856124fb565b60008381526005602052604090206003015460ff16151560011415610b3857610b38600080516020615e34833981519152856124fb565b600080516020615e34833981519152611b838133612380565b611b8c33610665565b600114604051806040016040528060018152602001601960f91b81525090611bc75760405162461bcd60e51b815260040161054191906157b4565b5060008481526005602081905260408220018054909190611bf857634e487b7160e01b600052603260045260246000fd5b6000918252602090912001546001600160a01b0316336001600160a01b031614604051806040016040528060018152602001603560f81b81525090611c505760405162461bcd60e51b815260040161054191906157b4565b506000848152600560209081526040918290206003015482518084019093526001808452601b60f91b9284019290925260ff16151514611ca35760405162461bcd60e51b815260040161054191906157b4565b5060018083811415611cb6575083905060005b611cc4600780546001019055565b6000611ccf60075490565b60408051600180825281830190925291925060009190602080830190803683370190505090503381600081518110611d1757634e487b7160e01b600052603260045260246000fd5b6001600160a01b03909216602092830291909101820152600089815260059091526040812060040154611d4b906001615b30565b9050611d55614df0565b60606040518061012001604052808681526020018c8152602001611d788d61191d565b81526020018715158152602001848152602001604051806101000160405280878152602001611da788516138ee565b81526020016000604051908082528060200260200182016040528015611dd7578160200160208202803683370190505b508152602080820186905260408051600080825292810182529201919050815260208082018690526040805160008082529281018252920191905081526020908101859052908252818101859052604080516080810182526000808252818401819052818301819052606080830182905283860192909252825180850184528181529190940152888352600582529182902083518155838201516001820155918301518051611e8c9260028501920190614cd2565b50606082015160038201805460ff19169115159190911790556080820151600482015560a0820151805180516005840191611ecc91839160200190614c3e565b506020828101518051611ee59260018501920190614d46565b5060408201518051611f01916002840191602090910190614c3e565b5060608201518051611f1d916003840191602090910190614d46565b5060808201518051611f39916004840191602090910190614c3e565b5060a08201518051611f55916005840191602090910190614d46565b5060c08201518051611f71916006840191602090910190614c3e565b5060e08201518051611f8d916007840191602090910190614d46565b50505060c08201518051600d8301805460208085015160408087015160608089015160809099015163ffffffff908116600160801b0263ffffffff60801b199a8216600160601b0263ffffffff60601b19948316600160401b029490941667ffffffffffffffff60401b19968316600160201b0267ffffffffffffffff199099169a83169a909a1797909717949094169790971717969096169290921790925560e08601518051600e870180546001600160a01b039283166001600160a01b031990911617905581840151600f880180549784015193909601511515600160c01b0260ff60c01b1993909416600160a01b026001600160c01b0319909716911617949094179390931692909217905561010083015180516120b49260108501920190614cd2565b509050506120fb846000815181106120dc57634e487b7160e01b600052603260045260246000fd5b60200260200101518689604051806020016040528060008152506137de565b61210d856121088d61191d565b612361565b61211685613a19565b5060405185815233907f427e59d7b8c594b05943080c33e51d19494fdd0e39355d9e3f7103ac175322649060200160405180910390a25050505050505050505050565b612161614df0565b606082015160408301516020840151845161217c9190615b48565b6121869190615b48565b6121909190615b48565b6000848152600560205260409020600d015463ffffffff918216916121b89116612710615c09565b63ffffffff16146122045760405162461bcd60e51b81526020600482015260166024820152752a30b13632903230ba309024b7383aba1032b93937b960511b6044820152606401610541565b6040805160a08101825260008581526005602090815290839020600d015463ffffffff9081168352855181168284015290850151811682840152918401519091166060820152608081018360036020908102919091015163ffffffff9081169092526000958652600581526040958690208351600d909101805485840151868a01516060808901516080998a015196891667ffffffffffffffff1990951694909417600160201b93891684021767ffffffffffffffff60401b1916600160401b928916830263ffffffff60601b191617600160601b94891685021763ffffffff60801b198116600160801b978a168802908117968790558d5160a081018f52918a16908a1617815292850488169683019690965283048616998101999099528104841692880192909252900416908401525090919050565b60006001600160e01b0319821663152a902d60e11b148061056d575061056d82613b55565b600082815260066020908152604090912082516106b092840190614cd2565b61238a8282611408565b610bdf576123a2816001600160a01b03166014613b7a565b6123ad836020613b7a565b6040516020016123be929190615618565b60408051601f198184030181529082905262461bcd60e51b8252610541916004016157b4565b6123ee8282611408565b15610bdf5760008281526004602090815260408083206001600160a01b0385168085529252808320805460ff1916905551339285917ff6391f5c32d9c69d2a47ea670b442974b53935d1edc7fd64eb21e047a839171b9190a45050565b60608251600014156124ba5760408051600180825281830190925260009160208083019080368337019050509050828160008151811061249b57634e487b7160e01b600052603260045260246000fd5b6001600160a01b0390921660209283029190910190910152905061056d565b81836000815181106124dc57634e487b7160e01b600052603260045260246000fd5b6001600160a01b0390921660209283029190910190910152508161056d565b6125058282611408565b610bdf5760008281526004602090815260408083206001600160a01b03851684529091529020805460ff1916600117905561253d3390565b6001600160a01b0316816001600160a01b0316837f2f8788117e7eff1d82e926ec794901d17c78024a50270940304540a733656f0d60405160405180910390a45050565b612589614ca3565b6001830154600b840154600985015460078601546005870154600094938593909290916125b69190615b30565b6125c09190615b30565b6125ca9190615b30565b6001600160401b038111156125ef57634e487b7160e01b600052604160045260246000fd5b604051908082528060200260200182016040528015612618578160200160208202803683370190505b509050600081516001600160401b0381111561264457634e487b7160e01b600052604160045260246000fd5b60405190808252806020026020018201604052801561266d578160200160208202803683370190505b509050600082516001600160401b0381111561269957634e487b7160e01b600052604160045260246000fd5b6040519080825280602002602001820160405280156126c2578160200160208202803683370190505b5060058901549091506000906001141561282c576005890180546000906126f957634e487b7160e01b600052603260045260246000fd5b9060005260206000200160009054906101000a90046001600160a01b031684878151811061273757634e487b7160e01b600052603260045260246000fd5b60200260200101906001600160a01b031690816001600160a01b031681525050600082878151811061277957634e487b7160e01b600052603260045260246000fd5b602002602001019060038111156127a057634e487b7160e01b600052602160045260246000fd5b908160038111156127c157634e487b7160e01b600052602160045260246000fd5b905250600d890154612710906127e5908a90600160201b900463ffffffff16615ba7565b6127ef9190615b70565b83878151811061280f57634e487b7160e01b600052603260045260246000fd5b60209081029190910101528561282481615cd8565b965050612a0d565b600589015460011015612a0d575060005b6005890154811015612a0d576005890180548290811061286d57634e487b7160e01b600052603260045260246000fd5b9060005260206000200160009054906101000a90046001600160a01b03168487815181106128ab57634e487b7160e01b600052603260045260246000fd5b60200260200101906001600160a01b031690816001600160a01b03168152505060008287815181106128ed57634e487b7160e01b600052603260045260246000fd5b6020026020010190600381111561291457634e487b7160e01b600052602160045260246000fd5b9081600381111561293557634e487b7160e01b600052602160045260246000fd5b905250600d89015460068a0180546305f5e100928b92600160201b90910463ffffffff16918590811061297857634e487b7160e01b600052603260045260246000fd5b90600052602060002090600891828204019190066004029054906101000a900463ffffffff166129a89190615bc6565b63ffffffff166129b89190615ba7565b6129c29190615b70565b8387815181106129e257634e487b7160e01b600052603260045260246000fd5b6020908102919091010152856129f781615cd8565b9650508080612a0590615cd8565b91505061283d565b600789015415612beb575060005b6007890154811015612beb5760078901805482908110612a4b57634e487b7160e01b600052603260045260246000fd5b9060005260206000200160009054906101000a90046001600160a01b0316848781518110612a8957634e487b7160e01b600052603260045260246000fd5b60200260200101906001600160a01b031690816001600160a01b0316815250506001828781518110612acb57634e487b7160e01b600052603260045260246000fd5b60200260200101906003811115612af257634e487b7160e01b600052602160045260246000fd5b90816003811115612b1357634e487b7160e01b600052602160045260246000fd5b905250600d89015460088a0180546305f5e100928b92600160401b90910463ffffffff169185908110612b5657634e487b7160e01b600052603260045260246000fd5b90600052602060002090600891828204019190066004029054906101000a900463ffffffff16612b869190615bc6565b63ffffffff16612b969190615ba7565b612ba09190615b70565b838781518110612bc057634e487b7160e01b600052603260045260246000fd5b602090810291909101015285612bd581615cd8565b9650508080612be390615cd8565b915050612a1b565b600989015415612dc9575060005b6009890154811015612dc95760098901805482908110612c2957634e487b7160e01b600052603260045260246000fd5b9060005260206000200160009054906101000a90046001600160a01b0316848781518110612c6757634e487b7160e01b600052603260045260246000fd5b60200260200101906001600160a01b031690816001600160a01b0316815250506002828781518110612ca957634e487b7160e01b600052603260045260246000fd5b60200260200101906003811115612cd057634e487b7160e01b600052602160045260246000fd5b90816003811115612cf157634e487b7160e01b600052602160045260246000fd5b905250600d890154600a8a0180546305f5e100928b92600160601b90910463ffffffff169185908110612d3457634e487b7160e01b600052603260045260246000fd5b90600052602060002090600891828204019190066004029054906101000a900463ffffffff16612d649190615bc6565b63ffffffff16612d749190615ba7565b612d7e9190615b70565b838781518110612d9e57634e487b7160e01b600052603260045260246000fd5b602090810291909101015285612db381615cd8565b9650508080612dc190615cd8565b915050612bf9565b600b89015415612fa7575060005b600b890154811015612fa757600b8901805482908110612e0757634e487b7160e01b600052603260045260246000fd5b9060005260206000200160009054906101000a90046001600160a01b0316848781518110612e4557634e487b7160e01b600052603260045260246000fd5b60200260200101906001600160a01b031690816001600160a01b0316815250506003828781518110612e8757634e487b7160e01b600052603260045260246000fd5b60200260200101906003811115612eae57634e487b7160e01b600052602160045260246000fd5b90816003811115612ecf57634e487b7160e01b600052602160045260246000fd5b905250600d890154600c8a0180546305f5e100928b92600160801b90910463ffffffff169185908110612f1257634e487b7160e01b600052603260045260246000fd5b90600052602060002090600891828204019190066004029054906101000a900463ffffffff16612f429190615bc6565b63ffffffff16612f529190615ba7565b612f5c9190615b70565b838781518110612f7c57634e487b7160e01b600052603260045260246000fd5b602090810291909101015285612f9181615cd8565b9650508080612f9f90615cd8565b915050612dd7565b600f89015460009060ff600160c01b90910416151560011415612ff657600f8a015461271090612fe5908b90600160a01b900463ffffffff16615ba7565b612fef9190615b70565b905061301d565b600d8a015461271090613010908b9063ffffffff16615ba7565b61301a9190615b70565b90505b613025614ca3565b948552602085019390935250604083015260608201929092526080810191909152949350505050565b81518351146130b05760405162461bcd60e51b815260206004820152602860248201527f455243313135353a2069647320616e6420616d6f756e7473206c656e677468206044820152670dad2e6dac2e8c6d60c31b6064820152608401610541565b6001600160a01b0384166130d65760405162461bcd60e51b81526004016105419061580f565b336130e5818787878787613d5b565b60005b84518110156131e757600085828151811061311357634e487b7160e01b600052603260045260246000fd5b60200260200101519050600085838151811061313f57634e487b7160e01b600052603260045260246000fd5b602090810291909101810151600084815280835260408082206001600160a01b038e16835290935291909120549091508181101561318f5760405162461bcd60e51b815260040161054190615854565b6000838152602081815260408083206001600160a01b038e8116855292528083208585039055908b168252812080548492906131cc908490615b30565b92505081905550505050806131e090615cd8565b90506130e8565b50846001600160a01b0316866001600160a01b0316826001600160a01b03167f4a39dc06d4c0dbc64b70af90fd698a233a518aa5d07e595d983b8c0526c8f7fb8787604051613237929190615786565b60405180910390a4610a79818787878787613d69565b600084815260056020526040902061326790848484613ed4565b50505050565b606060008251845161327f9190615b30565b6001600160401b038111156132a457634e487b7160e01b600052604160045260246000fd5b6040519080825280602002602001820160405280156132cd578160200160208202803683370190505b50905060005b845181101561334e578481815181106132fc57634e487b7160e01b600052603260045260246000fd5b602002602001015182828151811061332457634e487b7160e01b600052603260045260246000fd5b6001600160a01b03909216602092830291909101909101528061334681615cd8565b9150506132d3565b5060005b83518110156113305783818151811061337b57634e487b7160e01b600052603260045260246000fd5b6020026020010151828651836133919190615b30565b815181106133af57634e487b7160e01b600052603260045260246000fd5b6001600160a01b0390921660209283029190910190910152806133d181615cd8565b915050613352565b60606000825184516133eb9190615b30565b6001600160401b0381111561341057634e487b7160e01b600052604160045260246000fd5b604051908082528060200260200182016040528015613439578160200160208202803683370190505b50905060005b84518110156134ad5784818151811061346857634e487b7160e01b600052603260045260246000fd5b602002602001015182828151811061349057634e487b7160e01b600052603260045260246000fd5b6020908102919091010152806134a581615cd8565b91505061343f565b5060005b8351811015611330578381815181106134da57634e487b7160e01b600052603260045260246000fd5b6020026020010151828651836134f09190615b30565b8151811061350e57634e487b7160e01b600052603260045260246000fd5b60209081029190910101528061352381615cd8565b9150506134b1565b606060008251845161353d9190615b30565b6001600160401b0381111561356257634e487b7160e01b600052604160045260246000fd5b60405190808252806020026020018201604052801561358b578160200160208202803683370190505b50905060005b845181101561363f578481815181106135ba57634e487b7160e01b600052603260045260246000fd5b60200260200101518282815181106135e257634e487b7160e01b600052603260045260246000fd5b6020026020010190600381111561360957634e487b7160e01b600052602160045260246000fd5b9081600381111561362a57634e487b7160e01b600052602160045260246000fd5b9052508061363781615cd8565b915050613591565b5060005b83518110156113305783818151811061366c57634e487b7160e01b600052603260045260246000fd5b6020026020010151828651836136829190615b30565b815181106136a057634e487b7160e01b600052603260045260246000fd5b602002602001019060038111156136c757634e487b7160e01b600052602160045260246000fd5b908160038111156136e857634e487b7160e01b600052602160045260246000fd5b905250806136f581615cd8565b915050613643565b816001600160a01b0316836001600160a01b031614156137715760405162461bcd60e51b815260206004820152602960248201527f455243313135353a2073657474696e6720617070726f76616c20737461747573604482015268103337b91039b2b63360b91b6064820152608401610541565b6001600160a01b03838116600081815260016020908152604080832094871680845294825291829020805460ff191686151590811790915591519182527f17307eab39ab6107e8899845ad3d59bd9653f200f220920489ca2b5937696c31910160405180910390a3505050565b6001600160a01b03841661383e5760405162461bcd60e51b815260206004820152602160248201527f455243313135353a206d696e7420746f20746865207a65726f206164647265736044820152607360f81b6064820152608401610541565b3361385e8160008761384f886145a5565b613858886145a5565b87613d5b565b6000848152602081815260408083206001600160a01b03891684529091528120805485929061388e908490615b30565b909155505060408051858152602081018590526001600160a01b0380881692600092918516917fc3d58168c5ae7397731d063d5bbf3d657854427343f4c083240f7aacaa2d0f62910160405180910390a4610b38816000878787876145fe565b60608115613a0c576000826001600160401b0381111561391e57634e487b7160e01b600052604160045260246000fd5b604051908082528060200260200182016040528015613947578160200160208202803683370190505b509050600061395884612710615b84565b905060015b848110156139ad578183828151811061398657634e487b7160e01b600052603260045260246000fd5b63ffffffff90921660209283029190910190910152806139a581615cd8565b91505061395d565b506139b9600185615c09565b6139c39082615bc6565b6139cf90612710615c09565b826000815181106139f057634e487b7160e01b600052603260045260246000fd5b63ffffffff909216602092830291909101909101525092915050565b506060919050565b919050565b613a21614df0565b600082815260056020526040902061056d906146c8565b6001600160a01b038416613a5e5760405162461bcd60e51b81526004016105419061580f565b33613a6e81878761384f886145a5565b6000848152602081815260408083206001600160a01b038a16845290915290205483811015613aaf5760405162461bcd60e51b815260040161054190615854565b6000858152602081815260408083206001600160a01b038b8116855292528083208785039055908816825281208054869290613aec908490615b30565b909155505060408051868152602081018690526001600160a01b03808916928a821692918616917fc3d58168c5ae7397731d063d5bbf3d657854427343f4c083240f7aacaa2d0f62910160405180910390a4613b4c8288888888886145fe565b50505050505050565b60006001600160e01b03198216637965db0b60e01b148061056d575061056d826148c5565b60606000613b89836002615ba7565b613b94906002615b30565b6001600160401b03811115613bb957634e487b7160e01b600052604160045260246000fd5b6040519080825280601f01601f191660200182016040528015613be3576020820181803683370190505b509050600360fc1b81600081518110613c0c57634e487b7160e01b600052603260045260246000fd5b60200101906001600160f81b031916908160001a905350600f60fb1b81600181518110613c4957634e487b7160e01b600052603260045260246000fd5b60200101906001600160f81b031916908160001a9053506000613c6d846002615ba7565b613c78906001615b30565b90505b6001811115613d0c576f181899199a1a9b1b9c1cb0b131b232b360811b85600f1660108110613cba57634e487b7160e01b600052603260045260246000fd5b1a60f81b828281518110613cde57634e487b7160e01b600052603260045260246000fd5b60200101906001600160f81b031916908160001a90535060049490941c93613d0581615c5a565b9050613c7b565b508315610aa15760405162461bcd60e51b815260206004820181905260248201527f537472696e67733a20686578206c656e67746820696e73756666696369656e746044820152606401610541565b610a79868686868686614915565b6001600160a01b0384163b15610a795760405163bc197c8160e01b81526001600160a01b0385169063bc197c8190613dad908990899088908890889060040161568d565b602060405180830381600087803b158015613dc757600080fd5b505af1925050508015613df7575060408051601f3d908101601f19168201909252613df49181019061529b565b60015b613ea457613e03615d59565b806308c379a01415613e3d5750613e18615d71565b80613e235750613e3f565b8060405162461bcd60e51b815260040161054191906157b4565b505b60405162461bcd60e51b815260206004820152603460248201527f455243313135353a207472616e7366657220746f206e6f6e20455243313135356044820152732932b1b2b4bb32b91034b6b83632b6b2b73a32b960611b6064820152608401610541565b6001600160e01b0319811663bc197c8160e01b14613b4c5760405162461bcd60e51b8152600401610541906157c7565b6000805b83518163ffffffff161015613f3457838163ffffffff1681518110613f0d57634e487b7160e01b600052603260045260246000fd5b602002602001015182613f209190615b48565b915080613f2c81615cf3565b915050613ed8565b508063ffffffff1661271014613f805760405162461bcd60e51b815260206004820152601160248201527056616c75652073686f756c64203130302560781b6044820152606401610541565b600585018054600090613fa357634e487b7160e01b600052603260045260246000fd5b6000918252602090912001546001600160a01b031633141561410e57600182151514156140585761403c848660050160000180548060200260200160405190810160405280929190818152602001828054801561402957602002820191906000526020600020905b81546001600160a01b0316815260019091019060200180831161400b575b505050505061326d90919063ffffffff16565b8051614052916005880191602090910190614c3e565b506140e2565b6140ca84866005016000018054806020026020016040519081016040528092919081815260200182805480156140b757602002820191906000526020600020905b81546001600160a01b03168152600190910190602001808311614099575b5050505050614a5990919063ffffffff16565b80516140e0916005880191602090910190614c3e565b505b82516005860154146140f357600080fd5b82516141089060068701906020860190614d46565b5061459c565b60078501805460009061413157634e487b7160e01b600052603260045260246000fd5b6000918252602090912001546001600160a01b031633141561429257600182151514156141e4576141c88486600501600201805480602002602001604051908101604052809291908181526020018280548015614029576020028201919060005260206000209081546001600160a01b0316815260019091019060200180831161400b57505050505061326d90919063ffffffff16565b80516141de916007880191602090910190614c3e565b5061426c565b61425484866005016002018054806020026020016040519081016040528092919081815260200182805480156140b7576020028201919060005260206000209081546001600160a01b03168152600190910190602001808311614099575050505050614a5990919063ffffffff16565b805161426a916007880191602090910190614c3e565b505b825160078601541461427d57600080fd5b82516141089060088701906020860190614d46565b6009850180546000906142b557634e487b7160e01b600052603260045260246000fd5b6000918252602090912001546001600160a01b031633141561441657600182151514156143685761434c8486600501600401805480602002602001604051908101604052809291908181526020018280548015614029576020028201919060005260206000209081546001600160a01b0316815260019091019060200180831161400b57505050505061326d90919063ffffffff16565b8051614362916009880191602090910190614c3e565b506143f0565b6143d884866005016004018054806020026020016040519081016040528092919081815260200182805480156140b7576020028201919060005260206000209081546001600160a01b03168152600190910190602001808311614099575050505050614a5990919063ffffffff16565b80516143ee916009880191602090910190614c3e565b505b825160098601541461440157600080fd5b825161410890600a8701906020860190614d46565b600b8501805460009061443957634e487b7160e01b600052603260045260246000fd5b6000918252602090912001546001600160a01b031633141561459c57600182151514156144ec576144d08486600501600601805480602002602001604051908101604052809291908181526020018280548015614029576020028201919060005260206000209081546001600160a01b0316815260019091019060200180831161400b57505050505061326d90919063ffffffff16565b80516144e691600b880191602090910190614c3e565b50614574565b61455c84866005016006018054806020026020016040519081016040528092919081815260200182805480156140b7576020028201919060005260206000209081546001600160a01b03168152600190910190602001808311614099575050505050614a5990919063ffffffff16565b805161457291600b880191602090910190614c3e565b505b8251600b8601541461458557600080fd5b825161459a90600c8701906020860190614d46565b505b610a79856146c8565b604080516001808252818301909252606091600091906020808301908036833701905050905082816000815181106145ed57634e487b7160e01b600052603260045260246000fd5b602090810291909101015292915050565b6001600160a01b0384163b15610a795760405163f23a6e6160e01b81526001600160a01b0385169063f23a6e619061464290899089908890889088906004016156eb565b602060405180830381600087803b15801561465c57600080fd5b505af192505050801561468c575060408051601f3d908101601f191682019092526146899181019061529b565b60015b61469857613e03615d59565b6001600160e01b0319811663f23a6e6160e01b14613b4c5760405162461bcd60e51b8152600401610541906157c7565b6146d0614df0565b60078201546000908190819081901561470e5760078601546105dc94506146f6906138ee565b805161470c916008890191602090910190614d46565b505b6009860154156147435760098601546103e8935061472b906138ee565b805161474191600a890191602090910190614d46565b505b600b8601541561477857600b8601546103e89250614760906138ee565b805161477691600c890191602090910190614d46565b505b856004015460011461478957506113885b600081838561479a88612710615c09565b6147a49190615c09565b6147ae9190615c09565b6147b89190615c09565b60058801549091506147c9906138ee565b80516147df9160068a0191602090910190614d46565b506040805160a0808201835263ffffffff948516808352938516602080840182905298861683850181905297861660608085018290529787166080948501819052600d9c909c01805467ffffffffffffffff1916909617600160201b9283021767ffffffffffffffff60401b1916600160401b998a0263ffffffff60601b191617600160601b9182021763ffffffff60801b198116600160801b9d8e029081179788905586519485018752908816908816178352908504861698820198909852958304841691860191909152948104821692840192909252949004909316908301525090565b60006001600160e01b03198216636cdb3d1360e11b14806148f657506001600160e01b031982166303a24d0760e21b145b8061056d57506301ffc9a760e01b6001600160e01b031983161461056d565b6001600160a01b0385166149b85760005b83518110156149b65782818151811061494f57634e487b7160e01b600052603260045260246000fd5b60200260200101516003600086848151811061497b57634e487b7160e01b600052603260045260246000fd5b6020026020010151815260200190815260200160002060008282546149a09190615b30565b909155506149af905081615cd8565b9050614926565b505b6001600160a01b038416610a795760005b8351811015613b4c578281815181106149f257634e487b7160e01b600052603260045260246000fd5b602002602001015160036000868481518110614a1e57634e487b7160e01b600052603260045260246000fd5b602002602001015181526020019081526020016000206000828254614a439190615bf2565b90915550614a52905081615cd8565b90506149c9565b6060825182511115614aa25760405162461bcd60e51b81526020600482015260126024820152713932b6b7bb329031b7bab73a1032b93937b960711b6044820152606401610541565b60005b60018451614ab39190615bf2565b811015614c365760005b60018451614acb9190615bf2565b811015614c2357838181518110614af257634e487b7160e01b600052603260045260246000fd5b60200260200101516001600160a01b0316858381518110614b2357634e487b7160e01b600052603260045260246000fd5b60200260200101516001600160a01b03161415614c1157815b60018651614b4a9190615bf2565b811015614c0f5785614b5d826001615b30565b81518110614b7b57634e487b7160e01b600052603260045260246000fd5b6020026020010151868281518110614ba357634e487b7160e01b600052603260045260246000fd5b60200260200101906001600160a01b031690816001600160a01b0316815250508560018751614bd29190615bf2565b81518110614bf057634e487b7160e01b600052603260045260246000fd5b6000602091820292909201015280614c0781615cd8565b915050614b3c565b505b80614c1b81615cd8565b915050614abd565b5080614c2e81615cd8565b915050614aa5565b509192915050565b828054828255906000526020600020908101928215614c93579160200282015b82811115614c9357825182546001600160a01b0319166001600160a01b03909116178255602090920191600190910190614c5e565b50614c9f929150614e1e565b5090565b6040518060a0016040528060608152602001606081526020016060815260200160008152602001600081525090565b828054614cde90615c71565b90600052602060002090601f016020900481019282614d005760008555614c93565b82601f10614d1957805160ff1916838001178555614c93565b82800160010185558215614c93579182015b82811115614c93578251825591602001919060010190614d2b565b82805482825590600052602060002090600701600890048101928215614c935791602002820160005b83821115614db357835183826101000a81548163ffffffff021916908363ffffffff1602179055509260200192600401602081600301049283019260010302614d6f565b8015614de35782816101000a81549063ffffffff0219169055600401602081600301049283019260010302614db3565b5050614c9f929150614e1e565b6040805160a08101825260008082526020820181905291810182905260608101829052608081019190915290565b5b80821115614c9f5760008155600101614e1f565b80356001600160a01b0381168114613a1457600080fd5b600082601f830112614e5a578081fd5b81356020614e6782615b0d565b604051614e748282615cac565b8381528281019150858301600585901b87018401881015614e93578586fd5b855b85811015614eb857614ea682614e33565b84529284019290840190600101614e95565b5090979650505050505050565b600082601f830112614ed5578081fd5b81356020614ee282615b0d565b604051614eef8282615cac565b8381528281019150858301600585901b87018401881015614f0e578586fd5b855b85811015614eb857813584529284019290840190600101614f10565b80358015158114613a1457600080fd5b600082601f830112614f4c578081fd5b81356001600160401b03811115614f6557614f65615d43565b604051614f7c601f8301601f191660200182615cac565b818152846020838601011115614f90578283fd5b816020850160208301379081016020019190915292915050565b803563ffffffff81168114613a1457600080fd5b60008060408385031215614fd0578182fd5b614fd983614e33565b9150614fe760208401614e33565b90509250929050565b600080600080600060a08688031215615007578081fd5b61501086614e33565b945061501e60208701614e33565b935060408601356001600160401b0380821115615039578283fd5b61504589838a01614ec5565b9450606088013591508082111561505a578283fd5b61506689838a01614ec5565b9350608088013591508082111561507b578283fd5b5061508888828901614f3c565b9150509295509295909350565b600080600080600060a086880312156150ac578081fd5b6150b586614e33565b94506150c360208701614e33565b9350604086013592506060860135915060808601356001600160401b038111156150eb578182fd5b61508888828901614f3c565b60008060408385031215615109578182fd5b61511283614e33565b9150614fe760208401614f2c565b60008060408385031215615132578182fd5b61513b83614e33565b946020939093013593505050565b600080600080600060a08688031215615160578283fd5b85356001600160401b0380821115615176578485fd5b61518289838a01614e4a565b96506020880135915080821115615197578485fd5b6151a389838a01614e4a565b955060408801359150808211156151b8578485fd5b6151c489838a01614e4a565b945060608801359150808211156151d9578283fd5b61506689838a01614e4a565b600080604083850312156151f7578182fd5b82356001600160401b038082111561520d578384fd5b61521986838701614e4a565b9350602085013591508082111561522e578283fd5b5061523b85828601614ec5565b9150509250929050565b600060208284031215615256578081fd5b5035919050565b6000806040838503121561526f578182fd5b82359150614fe760208401614e33565b600060208284031215615290578081fd5b8135610aa181615dfa565b6000602082840312156152ac578081fd5b8151610aa181615dfa565b6000806000606084860312156152cb578081fd5b833592506152db60208501614e33565b9150604084013560ff811681146152f0578182fd5b809150509250925092565b60008060008060808587031215615310578182fd5b843593506020808601356001600160401b038082111561532e578485fd5b61533a89838a01614e4a565b9550604088013591508082111561534f578485fd5b508601601f81018813615360578384fd5b803561536b81615b0d565b6040516153788282615cac565b8281528481019150838501600584901b850186018c1015615397578788fd5b8794505b838510156153c0576153ac81614faa565b83526001949094019391850191850161539b565b5080965050505050506153d560608601614f2c565b905092959194509250565b60008060a083850312156153f2578182fd5b82359150602084603f850112615406578182fd5b604051608081018181106001600160401b038211171561542857615428615d43565b6040528085830160a0870188101561543e578485fd5b845b60048110156154645761545282614faa565b83529184019190840190600101615440565b50505080925050509250929050565b60008060408385031215615485578182fd5b8235915060208301356001600160401b038111156154a1578182fd5b61523b85828601614f3c565b600080604083850312156154bf578182fd5b50508035926020909101359150565b6000806000606084860312156154e2578081fd5b505081359360208301359350604090920135919050565b6000815180845260208085019450808401835b838110156155315781516001600160a01b03168752958201959082019060010161550c565b509495945050505050565b6000815180845260208085019450808401835b83811015615531578151600480821061557557634e487b7160e01b875260218152602487fd5b508752958201959082019060010161554f565b6000815180845260208085019450808401835b838110156155315781518752958201959082019060010161559b565b6000815180845260208085019450808401835b8381101561553157815163ffffffff16875295820195908201906001016155ca565b60008151808452615604816020860160208601615c2e565b601f01601f19169290920160200192915050565b7f416363657373436f6e74726f6c3a206163636f756e7420000000000000000000815260008351615650816017850160208801615c2e565b7001034b99036b4b9b9b4b733903937b6329607d1b6017918401918201528351615681816028840160208801615c2e565b01602801949350505050565b6001600160a01b0386811682528516602082015260a0604082018190526000906156b990830186615588565b82810360608401526156cb8186615588565b905082810360808401526156df81856155ec565b98975050505050505050565b6001600160a01b03868116825285166020820152604081018490526060810183905260a060808201819052600090615725908301846155ec565b979650505050505050565b60608152600061574360608301866154f9565b82810360208401526157558186615588565b90508281036040840152615769818561553c565b9695505050505050565b602081526000610aa16020830184615588565b6040815260006157996040830185615588565b82810360208401526157ab8185615588565b95945050505050565b602081526000610aa160208301846155ec565b60208082526028908201527f455243313135353a204552433131353552656365697665722072656a656374656040820152676420746f6b656e7360c01b606082015260800190565b60208082526025908201527f455243313135353a207472616e7366657220746f20746865207a65726f206164604082015264647265737360d81b606082015260800190565b6020808252602a908201527f455243313135353a20696e73756666696369656e742062616c616e636520666f60408201526939103a3930b739b332b960b11b606082015260800190565b602081526000825160a060208401526158ba60c08401826154f9565b90506020840151601f19808584030160408601526158d88383615588565b92506040860151915080858403016060860152506158f6828261553c565b91505060608401516080840152608084015160a08401528091505092915050565b60a0810161056d828463ffffffff808251168352806020830151166020840152806040830151166040840152806060830151166060840152806080830151166080840152505050565b60006102008b83528a60208401528060408401526159808184018b6155ec565b9050881515606084015287608084015282810360a084015261010087518183526159ac828401826154f9565b915050602088015182820360208401526159c682826155b7565b915050604088015182820360408401526159e082826154f9565b915050606088015182820360608401526159fa82826155b7565b91505060808801518282036080840152615a1482826154f9565b91505060a088015182820360a0840152615a2e82826155b7565b91505060c088015182820360c0840152615a4882826154f9565b91505060e088015182820360e0840152615a6282826155b7565b885163ffffffff90811660c088015260208a0151811660e088015260408a0151811661010088015260608a0151811661012088015260808a0151166101408701529250615aad915050565b84516001600160a01b03908116610160850152602086015116610180840152604085015163ffffffff166101a0840152606085015115156101c08401528281036101e0840152615afd81856155ec565b9c9b505050505050505050505050565b60006001600160401b03821115615b2657615b26615d43565b5060051b60200190565b60008219821115615b4357615b43615d17565b500190565b600063ffffffff808316818516808303821115615b6757615b67615d17565b01949350505050565b600082615b7f57615b7f615d2d565b500490565b600063ffffffff80841680615b9b57615b9b615d2d565b92169190910492915050565b6000816000190483118215151615615bc157615bc1615d17565b500290565b600063ffffffff80831681851681830481118215151615615be957615be9615d17565b02949350505050565b600082821015615c0457615c04615d17565b500390565b600063ffffffff83811690831681811015615c2657615c26615d17565b039392505050565b60005b83811015615c49578181015183820152602001615c31565b838111156132675750506000910152565b600081615c6957615c69615d17565b506000190190565b600181811c90821680615c8557607f821691505b60208210811415615ca657634e487b7160e01b600052602260045260246000fd5b50919050565b601f8201601f191681016001600160401b0381118282101715615cd157615cd1615d43565b6040525050565b6000600019821415615cec57615cec615d17565b5060010190565b600063ffffffff80831681811415615d0d57615d0d615d17565b6001019392505050565b634e487b7160e01b600052601160045260246000fd5b634e487b7160e01b600052601260045260246000fd5b634e487b7160e01b600052604160045260246000fd5b600060033d1115615d6e57600481823e5160e01c5b90565b600060443d1015615d7f5790565b6040516003193d81016004833e81513d6001600160401b038160248401118184111715615dae57505050505090565b8285019150815181811115615dc65750505050505090565b843d8701016020828501011115615de05750505050505090565b615def60208286010187615cac565b509095945050505050565b6001600160e01b031981168114615e1057600080fd5b5056fe1f1b4aa0d73319659c20c2c3f4cddca7aa547f1a7fdeb8c35f49f3f0a6a62d4c9f2df0fed2c77648de5860a4cc508cd0818c85b8b8a1ab4ceeef8d981c8956a6a2646970667358221220a2be5c78f706f7e707ea488580e11f2ac564e2241d1d1bda979b86aa9aed203064736f6c63430008040033",
  "linkReferences": {},
  "deployedLinkReferences": {}
}